{
  "contractName": "SuchWowX",
  "abi": [
    {
      "inputs": [],
      "stateMutability": "nonpayable",
      "type": "constructor"
    },
    {
      "anonymous": false,
      "inputs": [
        {
          "indexed": true,
          "internalType": "address",
          "name": "owner",
          "type": "address"
        },
        {
          "indexed": true,
          "internalType": "address",
          "name": "approved",
          "type": "address"
        },
        {
          "indexed": true,
          "internalType": "uint256",
          "name": "tokenId",
          "type": "uint256"
        }
      ],
      "name": "Approval",
      "type": "event"
    },
    {
      "anonymous": false,
      "inputs": [
        {
          "indexed": true,
          "internalType": "address",
          "name": "owner",
          "type": "address"
        },
        {
          "indexed": true,
          "internalType": "address",
          "name": "operator",
          "type": "address"
        },
        {
          "indexed": false,
          "internalType": "bool",
          "name": "approved",
          "type": "bool"
        }
      ],
      "name": "ApprovalForAll",
      "type": "event"
    },
    {
      "anonymous": false,
      "inputs": [
        {
          "indexed": true,
          "internalType": "address",
          "name": "previousOwner",
          "type": "address"
        },
        {
          "indexed": true,
          "internalType": "address",
          "name": "newOwner",
          "type": "address"
        }
      ],
      "name": "OwnershipTransferred",
      "type": "event"
    },
    {
      "anonymous": false,
      "inputs": [
        {
          "indexed": true,
          "internalType": "address",
          "name": "from",
          "type": "address"
        },
        {
          "indexed": true,
          "internalType": "address",
          "name": "to",
          "type": "address"
        },
        {
          "indexed": true,
          "internalType": "uint256",
          "name": "tokenId",
          "type": "uint256"
        }
      ],
      "name": "Transfer",
      "type": "event"
    },
    {
      "inputs": [
        {
          "internalType": "address",
          "name": "to",
          "type": "address"
        },
        {
          "internalType": "uint256",
          "name": "tokenId",
          "type": "uint256"
        }
      ],
      "name": "approve",
      "outputs": [],
      "stateMutability": "nonpayable",
      "type": "function"
    },
    {
      "inputs": [
        {
          "internalType": "address",
          "name": "owner",
          "type": "address"
        }
      ],
      "name": "balanceOf",
      "outputs": [
        {
          "internalType": "uint256",
          "name": "",
          "type": "uint256"
        }
      ],
      "stateMutability": "view",
      "type": "function"
    },
    {
      "inputs": [],
      "name": "contractCreator",
      "outputs": [
        {
          "internalType": "string",
          "name": "",
          "type": "string"
        }
      ],
      "stateMutability": "view",
      "type": "function"
    },
    {
      "inputs": [],
      "name": "contractTipCutPercent",
      "outputs": [
        {
          "internalType": "uint256",
          "name": "",
          "type": "uint256"
        }
      ],
      "stateMutability": "view",
      "type": "function"
    },
    {
      "inputs": [],
      "name": "contractVersion",
      "outputs": [
        {
          "internalType": "string",
          "name": "",
          "type": "string"
        }
      ],
      "stateMutability": "view",
      "type": "function"
    },
    {
      "inputs": [
        {
          "internalType": "uint256",
          "name": "tokenId",
          "type": "uint256"
        }
      ],
      "name": "getApproved",
      "outputs": [
        {
          "internalType": "address",
          "name": "",
          "type": "address"
        }
      ],
      "stateMutability": "view",
      "type": "function"
    },
    {
      "inputs": [
        {
          "internalType": "address",
          "name": "owner",
          "type": "address"
        },
        {
          "internalType": "address",
          "name": "operator",
          "type": "address"
        }
      ],
      "name": "isApprovedForAll",
      "outputs": [
        {
          "internalType": "bool",
          "name": "",
          "type": "bool"
        }
      ],
      "stateMutability": "view",
      "type": "function"
    },
    {
      "inputs": [
        {
          "internalType": "string",
          "name": "",
          "type": "string"
        }
      ],
      "name": "metadataTokenId",
      "outputs": [
        {
          "internalType": "uint256",
          "name": "",
          "type": "uint256"
        }
      ],
      "stateMutability": "view",
      "type": "function"
    },
    {
      "inputs": [],
      "name": "name",
      "outputs": [
        {
          "internalType": "string",
          "name": "",
          "type": "string"
        }
      ],
      "stateMutability": "view",
      "type": "function"
    },
    {
      "inputs": [],
      "name": "owner",
      "outputs": [
        {
          "internalType": "address",
          "name": "",
          "type": "address"
        }
      ],
      "stateMutability": "view",
      "type": "function"
    },
    {
      "inputs": [
        {
          "internalType": "uint256",
          "name": "tokenId",
          "type": "uint256"
        }
      ],
      "name": "ownerOf",
      "outputs": [
        {
          "internalType": "address",
          "name": "",
          "type": "address"
        }
      ],
      "stateMutability": "view",
      "type": "function"
    },
    {
      "inputs": [],
      "name": "publisherTipCutPercent",
      "outputs": [
        {
          "internalType": "uint256",
          "name": "",
          "type": "uint256"
        }
      ],
      "stateMutability": "view",
      "type": "function"
    },
    {
      "inputs": [],
      "name": "renounceOwnership",
      "outputs": [],
      "stateMutability": "nonpayable",
      "type": "function"
    },
    {
      "inputs": [
        {
          "internalType": "address",
          "name": "from",
          "type": "address"
        },
        {
          "internalType": "address",
          "name": "to",
          "type": "address"
        },
        {
          "internalType": "uint256",
          "name": "tokenId",
          "type": "uint256"
        }
      ],
      "name": "safeTransferFrom",
      "outputs": [],
      "stateMutability": "nonpayable",
      "type": "function"
    },
    {
      "inputs": [
        {
          "internalType": "address",
          "name": "from",
          "type": "address"
        },
        {
          "internalType": "address",
          "name": "to",
          "type": "address"
        },
        {
          "internalType": "uint256",
          "name": "tokenId",
          "type": "uint256"
        },
        {
          "internalType": "bytes",
          "name": "_data",
          "type": "bytes"
        }
      ],
      "name": "safeTransferFrom",
      "outputs": [],
      "stateMutability": "nonpayable",
      "type": "function"
    },
    {
      "inputs": [
        {
          "internalType": "address",
          "name": "operator",
          "type": "address"
        },
        {
          "internalType": "bool",
          "name": "approved",
          "type": "bool"
        }
      ],
      "name": "setApprovalForAll",
      "outputs": [],
      "stateMutability": "nonpayable",
      "type": "function"
    },
    {
      "inputs": [
        {
          "internalType": "bytes4",
          "name": "interfaceId",
          "type": "bytes4"
        }
      ],
      "name": "supportsInterface",
      "outputs": [
        {
          "internalType": "bool",
          "name": "",
          "type": "bool"
        }
      ],
      "stateMutability": "view",
      "type": "function"
    },
    {
      "inputs": [],
      "name": "symbol",
      "outputs": [
        {
          "internalType": "string",
          "name": "",
          "type": "string"
        }
      ],
      "stateMutability": "view",
      "type": "function"
    },
    {
      "inputs": [
        {
          "internalType": "uint256",
          "name": "",
          "type": "uint256"
        }
      ],
      "name": "tokenMeme",
      "outputs": [
        {
          "internalType": "uint256",
          "name": "publisherTipsAVAX",
          "type": "uint256"
        },
        {
          "internalType": "uint256",
          "name": "creatorTipsAVAX",
          "type": "uint256"
        },
        {
          "internalType": "uint256",
          "name": "contractTipsAVAX",
          "type": "uint256"
        },
        {
          "internalType": "address",
          "name": "publisherAddress",
          "type": "address"
        },
        {
          "internalType": "address",
          "name": "creatorAddress",
          "type": "address"
        },
        {
          "internalType": "string",
          "name": "metadataIPFSHash",
          "type": "string"
        }
      ],
      "stateMutability": "view",
      "type": "function"
    },
    {
      "inputs": [
        {
          "internalType": "address",
          "name": "from",
          "type": "address"
        },
        {
          "internalType": "address",
          "name": "to",
          "type": "address"
        },
        {
          "internalType": "uint256",
          "name": "tokenId",
          "type": "uint256"
        }
      ],
      "name": "transferFrom",
      "outputs": [],
      "stateMutability": "nonpayable",
      "type": "function"
    },
    {
      "inputs": [
        {
          "internalType": "address",
          "name": "newOwner",
          "type": "address"
        }
      ],
      "name": "transferOwnership",
      "outputs": [],
      "stateMutability": "nonpayable",
      "type": "function"
    },
    {
      "inputs": [
        {
          "internalType": "address",
          "name": "",
          "type": "address"
        }
      ],
      "name": "userProfile",
      "outputs": [
        {
          "internalType": "string",
          "name": "wowneroAddress",
          "type": "string"
        },
        {
          "internalType": "string",
          "name": "userHandle",
          "type": "string"
        },
        {
          "internalType": "string",
          "name": "metadataIPFSHash",
          "type": "string"
        },
        {
          "internalType": "uint256",
          "name": "tippedAVAX",
          "type": "uint256"
        }
      ],
      "stateMutability": "view",
      "type": "function"
    },
    {
      "inputs": [],
      "name": "withdraw",
      "outputs": [],
      "stateMutability": "nonpayable",
      "type": "function"
    },
    {
      "inputs": [
        {
          "internalType": "uint256",
          "name": "percent",
          "type": "uint256"
        }
      ],
      "name": "setContractTipCut",
      "outputs": [],
      "stateMutability": "nonpayable",
      "type": "function"
    },
    {
      "inputs": [
        {
          "internalType": "uint256",
          "name": "percent",
          "type": "uint256"
        }
      ],
      "name": "setPublisherTipCut",
      "outputs": [],
      "stateMutability": "nonpayable",
      "type": "function"
    },
    {
      "inputs": [],
      "name": "totalSupply",
      "outputs": [
        {
          "internalType": "uint256",
          "name": "",
          "type": "uint256"
        }
      ],
      "stateMutability": "view",
      "type": "function"
    },
    {
      "inputs": [
        {
          "internalType": "string",
          "name": "wowneroAddress",
          "type": "string"
        }
      ],
      "name": "setUserWowneroAddress",
      "outputs": [],
      "stateMutability": "nonpayable",
      "type": "function"
    },
    {
      "inputs": [
        {
          "internalType": "string",
          "name": "handle",
          "type": "string"
        }
      ],
      "name": "setUserHandle",
      "outputs": [],
      "stateMutability": "nonpayable",
      "type": "function"
    },
    {
      "inputs": [
        {
          "internalType": "string",
          "name": "metadataIPFSHash",
          "type": "string"
        }
      ],
      "name": "setUserMetadata",
      "outputs": [],
      "stateMutability": "nonpayable",
      "type": "function"
    },
    {
      "inputs": [
        {
          "internalType": "string",
          "name": "metadataIPFSHash",
          "type": "string"
        },
        {
          "internalType": "address",
          "name": "creatorAddress",
          "type": "address"
        }
      ],
      "name": "mint",
      "outputs": [],
      "stateMutability": "nonpayable",
      "type": "function"
    },
    {
      "inputs": [
        {
          "internalType": "uint256",
          "name": "tokenId",
          "type": "uint256"
        }
      ],
      "name": "tipAVAX",
      "outputs": [],
      "stateMutability": "payable",
      "type": "function"
    },
    {
      "inputs": [
        {
          "internalType": "uint256",
          "name": "tokenId",
          "type": "uint256"
        }
      ],
      "name": "tokenURI",
      "outputs": [
        {
          "internalType": "string",
          "name": "",
          "type": "string"
        }
      ],
      "stateMutability": "view",
      "type": "function"
    }
  ],
  "bytecode": "0x60c0604052600d60808190526c0d8f4c2dacadcc2c6ca5ccae8d609b1b60a09081526200003091600c919062000151565b506040805180820190915260048082526376302e3160e01b60209092019182526200005e91600d9162000151565b506005600e556005600f553480156200007657600080fd5b5060408051808201825260088152670a6eac6d0aedeeeb60c31b6020808301918252835180850190945260038452620a6aeb60eb1b908401528151919291620000c29160009162000151565b508051620000d890600190602084019062000151565b505050620000f5620000ef620000fb60201b60201c565b620000ff565b62000234565b3390565b600780546001600160a01b038381166001600160a01b0319831681179093556040519116919082907f8be0079c531659141344cd1fd0a4f28419497f9722a3daafe3b4186f6b6457e090600090a35050565b8280546200015f90620001f7565b90600052602060002090601f016020900481019282620001835760008555620001ce565b82601f106200019e57805160ff1916838001178555620001ce565b82800160010185558215620001ce579182015b82811115620001ce578251825591602001919060010190620001b1565b50620001dc929150620001e0565b5090565b5b80821115620001dc5760008155600101620001e1565b600181811c908216806200020c57607f821691505b602082108114156200022e57634e487b7160e01b600052602260045260246000fd5b50919050565b61244e80620002446000396000f3fe6080604052600436106101e35760003560e01c8063715018a611610102578063afb5d0d411610095578063e4faf68a11610064578063e4faf68a14610564578063e985e9c51461059c578063f2fde38b146105e5578063fab122911461060557600080fd5b8063afb5d0d4146104e4578063b88d4fde14610504578063c87b56dd14610524578063d1ac04931461054457600080fd5b806395d89b41116100d157806395d89b4114610484578063a0a8e46014610499578063a22cb465146104ae578063a8ad4198146104ce57600080fd5b8063715018a61461041b57806373ab097614610430578063849cac9a146104465780638da5cb5b1461046657600080fd5b80631e2f73b11161017a5780633ccfd60b116101495780633ccfd60b146103a657806342842e0e146103bb5780636352211e146103db57806370a08231146103fb57600080fd5b80631e2f73b11461032c57806323b872dd1461034157806325a80b3d146103615780632f0d275c1461037457600080fd5b8063095ea7b3116101b6578063095ea7b31461029957806318160ddd146102b95780631c351a9d146102dc5780631c8e8962146102fc57600080fd5b806301ffc9a7146101e857806303ae8eb21461021d57806306fdde031461023f578063081812fc14610261575b600080fd5b3480156101f457600080fd5b50610208610203366004611d8d565b610625565b60405190151581526020015b60405180910390f35b34801561022957600080fd5b5061023d610238366004611daa565b610677565b005b34801561024b57600080fd5b5061025461070b565b6040516102149190611e1b565b34801561026d57600080fd5b5061028161027c366004611daa565b61079d565b6040516001600160a01b039091168152602001610214565b3480156102a557600080fd5b5061023d6102b4366004611e4a565b610832565b3480156102c557600080fd5b506102ce610948565b604051908152602001610214565b3480156102e857600080fd5b5061023d6102f7366004611f20565b610958565b34801561030857600080fd5b5061031c610317366004611f6e565b610b77565b6040516102149493929190611f89565b34801561033857600080fd5b50610254610d37565b34801561034d57600080fd5b5061023d61035c366004611fd4565b610dc5565b61023d61036f366004611daa565b610df6565b34801561038057600080fd5b5061039461038f366004611daa565b61101b565b60405161021496959493929190612010565b3480156103b257600080fd5b5061023d6110e8565b3480156103c757600080fd5b5061023d6103d6366004611fd4565b611145565b3480156103e757600080fd5b506102816103f6366004611daa565b611160565b34801561040757600080fd5b506102ce610416366004611f6e565b6111d7565b34801561042757600080fd5b5061023d61125e565b34801561043c57600080fd5b506102ce600e5481565b34801561045257600080fd5b5061023d61046136600461205c565b611294565b34801561047257600080fd5b506007546001600160a01b0316610281565b34801561049057600080fd5b5061025461130b565b3480156104a557600080fd5b5061025461131a565b3480156104ba57600080fd5b5061023d6104c9366004612091565b611327565b3480156104da57600080fd5b506102ce600f5481565b3480156104f057600080fd5b5061023d6104ff36600461205c565b611332565b34801561051057600080fd5b5061023d61051f3660046120cd565b6113ad565b34801561053057600080fd5b5061025461053f366004611daa565b6113e5565b34801561055057600080fd5b5061023d61055f366004611daa565b611423565b34801561057057600080fd5b506102ce61057f36600461205c565b8051602081830181018051600b8252928201919093012091525481565b3480156105a857600080fd5b506102086105b7366004612149565b6001600160a01b03918216600090815260056020908152604080832093909416825291909152205460ff1690565b3480156105f157600080fd5b5061023d610600366004611f6e565b6114af565b34801561061157600080fd5b5061023d61062036600461205c565b61154a565b60006001600160e01b031982166380ac58cd60e01b148061065657506001600160e01b03198216635b5e139f60e01b145b8061067157506301ffc9a760e01b6001600160e01b03198316145b92915050565b6007546001600160a01b031633146106aa5760405162461bcd60e51b81526004016106a190612173565b60405180910390fd5b600a8111156107065760405162461bcd60e51b815260206004820152602260248201527f436f6e747261637420746970206375742063616e6e6f74206578636565642031604482015261302560f01b60648201526084016106a1565b600e55565b60606000805461071a906121a8565b80601f0160208091040260200160405190810160405280929190818152602001828054610746906121a8565b80156107935780601f1061076857610100808354040283529160200191610793565b820191906000526020600020905b81548152906001019060200180831161077657829003601f168201915b5050505050905090565b6000818152600260205260408120546001600160a01b03166108165760405162461bcd60e51b815260206004820152602c60248201527f4552433732313a20617070726f76656420717565727920666f72206e6f6e657860448201526b34b9ba32b73a103a37b5b2b760a11b60648201526084016106a1565b506000908152600460205260409020546001600160a01b031690565b600061083d82611160565b9050806001600160a01b0316836001600160a01b031614156108ab5760405162461bcd60e51b815260206004820152602160248201527f4552433732313a20617070726f76616c20746f2063757272656e74206f776e656044820152603960f91b60648201526084016106a1565b336001600160a01b03821614806108c757506108c781336105b7565b6109395760405162461bcd60e51b815260206004820152603860248201527f4552433732313a20617070726f76652063616c6c6572206973206e6f74206f7760448201527f6e6572206e6f7220617070726f76656420666f7220616c6c000000000000000060648201526084016106a1565b61094383836115cd565b505050565b600061095360085490565b905090565b60008251116109b55760405162461bcd60e51b815260206004820152602360248201527f4d65746164617461204950465320686173682063616e6e6f7420626520656d706044820152623a3c9760e91b60648201526084016106a1565b600b826040516109c591906121e3565b908152602001604051809103902054600014610a405760405162461bcd60e51b815260206004820152603460248201527f54686174206d65746164617461204950465320686173682068617320616c726560448201527330b23c903132b2b7103932b332b932b731b2b21760611b60648201526084016106a1565b6000610a4a610948565b610a55906001612215565b9050610a61338261163b565b610a6f600880546001019055565b80600b84604051610a8091906121e3565b908152604080516020928190038301812093909355336000818152600a84528281206004908101805460018082018355918452868420018890556001600160a01b03898116808552868520600590810180548086018255908752898720018b905560c08a018852858a52888a018681528a890187815260608c0198895260808c0193845260a08c018f81528d895260098c52999097208b5181559051948101949094559451600284015594516003830180546001600160a01b031990811692841692909217905594519282018054909516921691909117909255915180519193610b6f93850192910190611cde565b505050505050565b600a60205260009081526040902080548190610b92906121a8565b80601f0160208091040260200160405190810160405280929190818152602001828054610bbe906121a8565b8015610c0b5780601f10610be057610100808354040283529160200191610c0b565b820191906000526020600020905b815481529060010190602001808311610bee57829003601f168201915b505050505090806001018054610c20906121a8565b80601f0160208091040260200160405190810160405280929190818152602001828054610c4c906121a8565b8015610c995780601f10610c6e57610100808354040283529160200191610c99565b820191906000526020600020905b815481529060010190602001808311610c7c57829003601f168201915b505050505090806002018054610cae906121a8565b80601f0160208091040260200160405190810160405280929190818152602001828054610cda906121a8565b8015610d275780601f10610cfc57610100808354040283529160200191610d27565b820191906000526020600020905b815481529060010190602001808311610d0a57829003601f168201915b5050505050908060030154905084565b600c8054610d44906121a8565b80601f0160208091040260200160405190810160405280929190818152602001828054610d70906121a8565b8015610dbd5780601f10610d9257610100808354040283529160200191610dbd565b820191906000526020600020905b815481529060010190602001808311610da057829003601f168201915b505050505081565b610dcf3382611655565b610deb5760405162461bcd60e51b81526004016106a19061222d565b61094383838361174c565b610dfe610948565b811115610e4d5760405162461bcd60e51b815260206004820152601e60248201527f43616e6e6f7420746970206e6f6e2d6578697374656e7420746f6b656e2e000060448201526064016106a1565b600e54606490600090610e6c90610e659084906118ec565b34906118ec565b90506000610e88610e65600f54856118ec90919063ffffffff16565b90506000610ea0610e9984846118ff565b349061190b565b60008681526009602090815260408083206004810154600391820154338652600a90945291909320909201549293506001600160a01b03918216929116903090610eea90346118ff565b336000908152600a60209081526040808320600301939093558a8252600990522060010154610f1990856118ff565b6000898152600960205260409020600181019190915554610f3a90866118ff565b600089815260096020526040902090815560020154610f5990876118ff565b6000898152600960205260408082206002019290925590516001600160a01b0385169186156108fc02918791818181858888f19350505050158015610fa2573d6000803e3d6000fd5b506040516001600160a01b0383169086156108fc029087906000818181858888f19350505050158015610fd9573d6000803e3d6000fd5b506040516001600160a01b0382169087156108fc029088906000818181858888f19350505050158015611010573d6000803e3d6000fd5b505050505050505050565b6009602052600090815260409020805460018201546002830154600384015460048501546005860180549596949593946001600160a01b03938416949390921692611065906121a8565b80601f0160208091040260200160405190810160405280929190818152602001828054611091906121a8565b80156110de5780601f106110b3576101008083540402835291602001916110de565b820191906000526020600020905b8154815290600101906020018083116110c157829003601f168201915b5050505050905086565b6007546001600160a01b031633146111125760405162461bcd60e51b81526004016106a190612173565b6040514790339082156108fc029083906000818181858888f19350505050158015611141573d6000803e3d6000fd5b5050565b610943838383604051806020016040528060008152506113ad565b6000818152600260205260408120546001600160a01b0316806106715760405162461bcd60e51b815260206004820152602960248201527f4552433732313a206f776e657220717565727920666f72206e6f6e657869737460448201526832b73a103a37b5b2b760b91b60648201526084016106a1565b60006001600160a01b0382166112425760405162461bcd60e51b815260206004820152602a60248201527f4552433732313a2062616c616e636520717565727920666f7220746865207a65604482015269726f206164647265737360b01b60648201526084016106a1565b506001600160a01b031660009081526003602052604090205490565b6007546001600160a01b031633146112885760405162461bcd60e51b81526004016106a190612173565b6112926000611917565b565b60008151116112e55760405162461bcd60e51b815260206004820152601860248201527f48616e646c65206d7573742062652070726f76696465642e000000000000000060448201526064016106a1565b336000908152600a60209081526040909120825161114192600190920191840190611cde565b60606001805461071a906121a8565b600d8054610d44906121a8565b611141338383611969565b600081511161138d5760405162461bcd60e51b815260206004820152602160248201527f576f776e65726f2061646472657373206d7573742062652070726f76696465646044820152601760f91b60648201526084016106a1565b336000908152600a60209081526040909120825161114192840190611cde565b6113b73383611655565b6113d35760405162461bcd60e51b81526004016106a19061222d565b6113df84848484611a38565b50505050565b60606009600083815260200190815260200160002060050160405160200161140d919061227e565b6040516020818303038152906040529050919050565b6007546001600160a01b0316331461144d5760405162461bcd60e51b81526004016106a190612173565b600a8111156114aa5760405162461bcd60e51b815260206004820152602360248201527f5075626c697368657220746970206375742063616e6e6f74206578636565642060448201526231302560e81b60648201526084016106a1565b600f55565b6007546001600160a01b031633146114d95760405162461bcd60e51b81526004016106a190612173565b6001600160a01b03811661153e5760405162461bcd60e51b815260206004820152602660248201527f4f776e61626c653a206e6577206f776e657220697320746865207a65726f206160448201526564647265737360d01b60648201526084016106a1565b61154781611917565b50565b60008151116115a75760405162461bcd60e51b8152602060048201526024808201527f4d6574616461746120495046532068617368206d7573742062652070726f76696044820152633232b21760e11b60648201526084016106a1565b336000908152600a60209081526040909120825161114192600290920191840190611cde565b600081815260046020526040902080546001600160a01b0319166001600160a01b038416908117909155819061160282611160565b6001600160a01b03167f8c5be1e5ebec7d5bd14f71427d1e84f3dd0314c0f7b2291e5b200ac8c7c3b92560405160405180910390a45050565b611141828260405180602001604052806000815250611a6b565b6000818152600260205260408120546001600160a01b03166116ce5760405162461bcd60e51b815260206004820152602c60248201527f4552433732313a206f70657261746f7220717565727920666f72206e6f6e657860448201526b34b9ba32b73a103a37b5b2b760a11b60648201526084016106a1565b60006116d983611160565b9050806001600160a01b0316846001600160a01b031614806117145750836001600160a01b03166117098461079d565b6001600160a01b0316145b8061174457506001600160a01b0380821660009081526005602090815260408083209388168352929052205460ff165b949350505050565b826001600160a01b031661175f82611160565b6001600160a01b0316146117c75760405162461bcd60e51b815260206004820152602960248201527f4552433732313a207472616e73666572206f6620746f6b656e2074686174206960448201526839903737ba1037bbb760b91b60648201526084016106a1565b6001600160a01b0382166118295760405162461bcd60e51b8152602060048201526024808201527f4552433732313a207472616e7366657220746f20746865207a65726f206164646044820152637265737360e01b60648201526084016106a1565b6118346000826115cd565b6001600160a01b038316600090815260036020526040812080546001929061185d908490612333565b90915550506001600160a01b038216600090815260036020526040812080546001929061188b908490612215565b909155505060008181526002602052604080822080546001600160a01b0319166001600160a01b0386811691821790925591518493918716917fddf252ad1be2c89b69c2b068fc378daa952ba7f163c4a11628f55a4df523b3ef91a4505050565b60006118f8828461234a565b9392505050565b60006118f88284612215565b60006118f88284612333565b600780546001600160a01b038381166001600160a01b0319831681179093556040519116919082907f8be0079c531659141344cd1fd0a4f28419497f9722a3daafe3b4186f6b6457e090600090a35050565b816001600160a01b0316836001600160a01b031614156119cb5760405162461bcd60e51b815260206004820152601960248201527f4552433732313a20617070726f766520746f2063616c6c65720000000000000060448201526064016106a1565b6001600160a01b03838116600081815260056020908152604080832094871680845294825291829020805460ff191686151590811790915591519182527f17307eab39ab6107e8899845ad3d59bd9653f200f220920489ca2b5937696c31910160405180910390a3505050565b611a4384848461174c565b611a4f84848484611a9e565b6113df5760405162461bcd60e51b81526004016106a19061236c565b611a758383611b9c565b611a826000848484611a9e565b6109435760405162461bcd60e51b81526004016106a19061236c565b60006001600160a01b0384163b15611b9157604051630a85bd0160e11b81526001600160a01b0385169063150b7a0290611ae29033908990889088906004016123be565b6020604051808303816000875af1925050508015611b1d575060408051601f3d908101601f19168201909252611b1a918101906123fb565b60015b611b77573d808015611b4b576040519150601f19603f3d011682016040523d82523d6000602084013e611b50565b606091505b508051611b6f5760405162461bcd60e51b81526004016106a19061236c565b805181602001fd5b6001600160e01b031916630a85bd0160e11b149050611744565b506001949350505050565b6001600160a01b038216611bf25760405162461bcd60e51b815260206004820181905260248201527f4552433732313a206d696e7420746f20746865207a65726f206164647265737360448201526064016106a1565b6000818152600260205260409020546001600160a01b031615611c575760405162461bcd60e51b815260206004820152601c60248201527f4552433732313a20746f6b656e20616c7265616479206d696e7465640000000060448201526064016106a1565b6001600160a01b0382166000908152600360205260408120805460019290611c80908490612215565b909155505060008181526002602052604080822080546001600160a01b0319166001600160a01b03861690811790915590518392907fddf252ad1be2c89b69c2b068fc378daa952ba7f163c4a11628f55a4df523b3ef908290a45050565b828054611cea906121a8565b90600052602060002090601f016020900481019282611d0c5760008555611d52565b82601f10611d2557805160ff1916838001178555611d52565b82800160010185558215611d52579182015b82811115611d52578251825591602001919060010190611d37565b50611d5e929150611d62565b5090565b5b80821115611d5e5760008155600101611d63565b6001600160e01b03198116811461154757600080fd5b600060208284031215611d9f57600080fd5b81356118f881611d77565b600060208284031215611dbc57600080fd5b5035919050565b60005b83811015611dde578181015183820152602001611dc6565b838111156113df5750506000910152565b60008151808452611e07816020860160208601611dc3565b601f01601f19169290920160200192915050565b6020815260006118f86020830184611def565b80356001600160a01b0381168114611e4557600080fd5b919050565b60008060408385031215611e5d57600080fd5b611e6683611e2e565b946020939093013593505050565b634e487b7160e01b600052604160045260246000fd5b600067ffffffffffffffff80841115611ea557611ea5611e74565b604051601f8501601f19908116603f01168101908282118183101715611ecd57611ecd611e74565b81604052809350858152868686011115611ee657600080fd5b858560208301376000602087830101525050509392505050565b600082601f830112611f1157600080fd5b6118f883833560208501611e8a565b60008060408385031215611f3357600080fd5b823567ffffffffffffffff811115611f4a57600080fd5b611f5685828601611f00565b925050611f6560208401611e2e565b90509250929050565b600060208284031215611f8057600080fd5b6118f882611e2e565b608081526000611f9c6080830187611def565b8281036020840152611fae8187611def565b90508281036040840152611fc28186611def565b91505082606083015295945050505050565b600080600060608486031215611fe957600080fd5b611ff284611e2e565b925061200060208501611e2e565b9150604084013590509250925092565b86815260208101869052604081018590526001600160a01b0384811660608301528316608082015260c060a0820181905260009061205090830184611def565b98975050505050505050565b60006020828403121561206e57600080fd5b813567ffffffffffffffff81111561208557600080fd5b61174484828501611f00565b600080604083850312156120a457600080fd5b6120ad83611e2e565b9150602083013580151581146120c257600080fd5b809150509250929050565b600080600080608085870312156120e357600080fd5b6120ec85611e2e565b93506120fa60208601611e2e565b925060408501359150606085013567ffffffffffffffff81111561211d57600080fd5b8501601f8101871361212e57600080fd5b61213d87823560208401611e8a565b91505092959194509250565b6000806040838503121561215c57600080fd5b61216583611e2e565b9150611f6560208401611e2e565b6020808252818101527f4f776e61626c653a2063616c6c6572206973206e6f7420746865206f776e6572604082015260600190565b600181811c908216806121bc57607f821691505b602082108114156121dd57634e487b7160e01b600052602260045260246000fd5b50919050565b600082516121f5818460208701611dc3565b9190910192915050565b634e487b7160e01b600052601160045260246000fd5b60008219821115612228576122286121ff565b500190565b60208082526031908201527f4552433732313a207472616e736665722063616c6c6572206973206e6f74206f6040820152701ddb995c881b9bdc88185c1c1c9bdd9959607a1b606082015260800190565b66697066733a2f2f60c81b8152600060076000845481600182811c9150808316806122aa57607f831692505b60208084108214156122ca57634e487b7160e01b86526022600452602486fd5b8180156122de57600181146122f357612324565b60ff1986168a890152848a0188019650612324565b60008b81526020902060005b8681101561231a5781548c82018b01529085019083016122ff565b505087858b010196505b50949998505050505050505050565b600082821015612345576123456121ff565b500390565b60008261236757634e487b7160e01b600052601260045260246000fd5b500490565b60208082526032908201527f4552433732313a207472616e7366657220746f206e6f6e20455243373231526560408201527131b2b4bb32b91034b6b83632b6b2b73a32b960711b606082015260800190565b6001600160a01b03858116825284166020820152604081018390526080606082018190526000906123f190830184611def565b9695505050505050565b60006020828403121561240d57600080fd5b81516118f881611d7756fea26469706673582212203b6e820fccc6902168bfe190e918e29af7bb22049fd50fe432cd2c25ec08097164736f6c634300080b0033",
  "immutableReferences": {},
  "source": "// SPDX-License-Identifier: MIT\npragma solidity ^0.8.0;\n\nimport \"@openzeppelin/contracts/token/ERC721/ERC721.sol\";\nimport \"@openzeppelin/contracts/token/ERC721/extensions/ERC721URIStorage.sol\";\nimport \"@openzeppelin/contracts/access/Ownable.sol\";\nimport \"@openzeppelin/contracts/utils/math/SafeMath.sol\";\nimport \"@openzeppelin/contracts/utils/Counters.sol\";\n\n\ncontract SuchWowX is ERC721, ERC721URIStorage, Ownable {\n    using SafeMath for uint256;\n    using Counters for Counters.Counter;\n    Counters.Counter private _tokenSupply;\n\n    // Structs to represent our data\n    struct Meme {\n        uint256 publisherTipsAVAX;\n        uint256 creatorTipsAVAX;\n        uint256 contractTipsAVAX;\n        address publisherAddress;\n        address creatorAddress;\n        string metadataIPFSHash;\n    }\n\n    struct User {\n        string wowneroAddress;\n        string userHandle;\n        string metadataIPFSHash;\n        uint256 tippedAVAX;\n        uint256[] memesPublished;\n        uint256[] memesCreated;\n    }\n\n    // Data to maintain\n    mapping (uint256 => Meme) public tokenMeme;\n    mapping (address => User) public userProfile;\n    mapping (string => uint256) public metadataTokenId;\n\n    // Define starting contract state\n    string public contractCreator = \"lzamenace.eth\";\n    string public contractVersion = \"v0.1\";\n    uint256 public contractTipCutPercent = 5;\n    uint256 public publisherTipCutPercent = 5;\n\n    constructor() ERC721(\"SuchWowX\", \"SWX\") {}\n\n    /************\n    Contract Operations\n    ************/\n\n    // Withdraw contract balance to creator (mnemonic seed address 0)\n    function withdraw() public onlyOwner {\n        uint256 balance = address(this).balance;\n        payable(msg.sender).transfer(balance);\n    }\n\n    // Specify new contract tip cut (not to exceed 10%)\n    function setContractTipCut(uint256 percent) public onlyOwner {\n        require(percent <= 10, \"Contract tip cut cannot exceed 10%\");\n        contractTipCutPercent = percent;\n    }\n\n    // Specify new publisher tip cut (not to exceed 10%)\n    function setPublisherTipCut(uint256 percent) public onlyOwner {\n        require(percent <= 10, \"Publisher tip cut cannot exceed 10%\");\n        publisherTipCutPercent = percent;\n    }\n\n    // Get total supply based upon counter\n    function totalSupply() public view returns (uint256) {\n        return _tokenSupply.current();\n    }\n\n    /************\n    User Settings\n    ************/\n\n    // Specify new Wownero address for user\n    function setUserWowneroAddress(string memory wowneroAddress) external {\n        require(bytes(wowneroAddress).length > 0, \"Wownero address must be provided.\");\n        userProfile[msg.sender].wowneroAddress = wowneroAddress;\n    }\n\n    // Specify new handle for user\n    function setUserHandle(string memory handle) external {\n        require(bytes(handle).length > 0, \"Handle must be provided.\");\n        userProfile[msg.sender].userHandle = handle;\n    }\n\n    // Specify new profile metadata IPFS hash for user\n    function setUserMetadata(string memory metadataIPFSHash) external {\n        require(bytes(metadataIPFSHash).length > 0, \"Metadata IPFS hash must be provided.\");\n        userProfile[msg.sender].metadataIPFSHash = metadataIPFSHash;\n    }\n\n    /************\n    Minting\n    ************/\n\n\n    // Mint a new token with a specific metadata hash location\n    function mint(string memory metadataIPFSHash, address creatorAddress) external {\n        require(bytes(metadataIPFSHash).length > 0, \"Metadata IPFS hash cannot be empty.\");\n        require(metadataTokenId[metadataIPFSHash] == 0, \"That metadata IPFS hash has already been referenced.\");\n        uint256 tokenId = totalSupply() + 1; // Start at 1\n        _safeMint(msg.sender, tokenId);\n        _tokenSupply.increment();\n        // track metadata IPFS hashes to be unique to each token ID\n        metadataTokenId[metadataIPFSHash] = tokenId;\n        // publisher details - track memes published for minter\n        userProfile[msg.sender].memesPublished.push(tokenId);\n        // creator details - track memes created for memer\n        userProfile[creatorAddress].memesCreated.push(tokenId);\n        // track meme details per token ID\n        tokenMeme[tokenId] = Meme({\n          publisherAddress: msg.sender,\n          creatorAddress: creatorAddress,\n          metadataIPFSHash: metadataIPFSHash,\n          publisherTipsAVAX: 0,\n          creatorTipsAVAX: 0,\n          contractTipsAVAX: 0\n        });\n    }\n\n    /************\n    Tipping\n    ************/\n\n    // Tip a token and it's creator\n    function tipAVAX(uint256 tokenId) public payable {\n        require(tokenId <= totalSupply(), \"Cannot tip non-existent token.\");\n        // Calculate tip amounts based upon stored cut percentages\n        uint256 hundo = 100;\n        uint256 contractTipAmount = msg.value.div(hundo.div(contractTipCutPercent));\n        uint256 publisherTipAmount = msg.value.div(hundo.div(publisherTipCutPercent));\n        uint256 creatorTipAmount = msg.value.sub(contractTipAmount.add(publisherTipAmount));\n        // Store addresses to use\n        address creator = tokenMeme[tokenId].creatorAddress;\n        address publisher = tokenMeme[tokenId].publisherAddress;\n        address ctrct = address(this);\n        // Store tip amounts for sender and recipients to the chain\n        userProfile[msg.sender].tippedAVAX = userProfile[msg.sender].tippedAVAX.add(msg.value);\n        tokenMeme[tokenId].creatorTipsAVAX = tokenMeme[tokenId].creatorTipsAVAX.add(creatorTipAmount);\n        tokenMeme[tokenId].publisherTipsAVAX = tokenMeme[tokenId].publisherTipsAVAX.add(publisherTipAmount);\n        tokenMeme[tokenId].contractTipsAVAX = tokenMeme[tokenId].contractTipsAVAX.add(contractTipAmount);\n        // Send transactions\n        payable(creator).transfer(creatorTipAmount);\n        payable(publisher).transfer(publisherTipAmount);\n        payable(ctrct).transfer(contractTipAmount);\n    }\n\n    /************\n    Overrides\n    ************/\n\n    function tokenURI(uint256 tokenId)\n        public\n        view\n        override(ERC721, ERC721URIStorage)\n        returns (string memory)\n    {\n        // Each token should return a unique IPFS hash\n        return string(abi.encodePacked(\"ipfs://\", tokenMeme[tokenId].metadataIPFSHash));\n    }\n\n    function _burn(uint256 tokenId)\n        internal\n        override(ERC721, ERC721URIStorage)\n    {\n        // Prevent burning\n    }\n}\n",
  "sourcePath": "/home/lance/git/github.com/lalanza808/suchwowx-smart-contract/contracts/SuchWowX.sol",
  "compiler": {
    "name": "solc",
    "version": "0.8.11+commit.d7f03943.Emscripten.clang"
  },
  "schemaVersion": "3.4.4",
  "updatedAt": "2021-12-29T22:52:10.698Z",
  "devdoc": {
    "kind": "dev",
    "methods": {
      "approve(address,uint256)": {
        "details": "See {IERC721-approve}."
      },
      "balanceOf(address)": {
        "details": "See {IERC721-balanceOf}."
      },
      "getApproved(uint256)": {
        "details": "See {IERC721-getApproved}."
      },
      "isApprovedForAll(address,address)": {
        "details": "See {IERC721-isApprovedForAll}."
      },
      "name()": {
        "details": "See {IERC721Metadata-name}."
      },
      "owner()": {
        "details": "Returns the address of the current owner."
      },
      "ownerOf(uint256)": {
        "details": "See {IERC721-ownerOf}."
      },
      "renounceOwnership()": {
        "details": "Leaves the contract without owner. It will not be possible to call `onlyOwner` functions anymore. Can only be called by the current owner. NOTE: Renouncing ownership will leave the contract without an owner, thereby removing any functionality that is only available to the owner."
      },
      "safeTransferFrom(address,address,uint256)": {
        "details": "See {IERC721-safeTransferFrom}."
      },
      "safeTransferFrom(address,address,uint256,bytes)": {
        "details": "See {IERC721-safeTransferFrom}."
      },
      "setApprovalForAll(address,bool)": {
        "details": "See {IERC721-setApprovalForAll}."
      },
      "supportsInterface(bytes4)": {
        "details": "See {IERC165-supportsInterface}."
      },
      "symbol()": {
        "details": "See {IERC721Metadata-symbol}."
      },
      "transferFrom(address,address,uint256)": {
        "details": "See {IERC721-transferFrom}."
      },
      "transferOwnership(address)": {
        "details": "Transfers ownership of the contract to a new account (`newOwner`). Can only be called by the current owner."
      }
    },
    "version": 1
  },
  "userdoc": {
    "kind": "user",
    "methods": {},
    "version": 1
  }
}